:020000040000FA
:02000000C92F06
:08000800F000030EF100831269
:100010000313F31D48287808FB0B1628FF3E8100C8
:100020007908242086007A08FB001A2881007908C4
:1000300024208600790A1F39F900FC0A0B11710E81
:100040008300F00E700E090082074B3449344334AC
:1000500041340B3409340334033403340334093496
:100060000B344134433449344B34833489348B3436
:10007000C134C334C934CB34CB34CB34CB34C9349E
:10008000C334C1348B34893483348207013402345D
:10009000831203130B184D281F28060800000B10AD
:1000A0002D300102031C5728731381011F28731779
:1000B00081011F28F31E6328F312E530F800013098
:1000C000FB00FA006928F316C830F8000130FB0085
:1000D000FA00080083160313C03081008312031353
:1000E0009630AC0006080B10143026220B1C7B281F
:1000F0006400AC0B72280614F9015A2000308A0003
:10010000F3150B118B160800F601F701F301F4014A
:10011000F5010630EE0061270030682401306824C4
:10012000FF306D06031D0800EC01ED01BC26080040
:10013000EC199B28F3286C1FF3286D1CF328741D01
:10014000DC28EE036E08031DA8280630EE00DC282C
:10015000181218166D112030A223EB23F419EE2883
:100160002308243A0319B528AD282430C7218F2449
:10017000F419EE285227AC00ED1EC028A530C72880
:100180006D1FC428A230C728ED1FF32892302C061B
:100190000319CD284630C721AD280330A223FA2009
:1001A00024305021F410B201B124230850210D3025
:1001B0002306031DD428F128ED1CF32808308A00FB
:1001C000CC2000308A00FA20B201EC21AC00003AC9
:1001D0000319F1282C085021B20AE5282130A22366
:1001E000F32843219221A40A603024060319A401B4
:1001F00076100800ED1DFE28D22100296A20352145
:1002000045308400F3131D21F3133E308400453044
:100210006806031916291D214C308400680603194D
:1002200016291D210730840704080E29F3171D2104
:1002300003305021F030502108000730BB00000887
:10024000AC0001303B06031D2E290310AC0DF31B3F
:100250002C142C0850210630840208000310AC0D29
:100260002C085021840ABB031F29FF30B500B600BB
:1002700081308316031392008312031391018C10B3
:100280006B0870210800FF303506AC00FF303606E1
:1002900050212C085021023070218C1C4D2908005F
:1002A000B3006400ED1969290830B000330C7E21D9
:1002B000B30C031C65297312AF0A8B212F08053A72
:1002C00003196529B00B56290800AF0173168B215D
:1002D000622908308A003308002001308A000800B3
:1002E000AA000630B00073168B2173128B21B00B5D
:1002F000752973168B21AA0B712908000130031888
:10030000B6060310B50CB60C031C08000830B60680
:100310008430B506080064008C1C8B298C10731A7D
:100320005A2008008B12000006100800731B9C293D
:100330003D1CA029BD0AAC293D18A029BD0AAC2945
:100340008C1C9629813083160313920083120313A9
:1003500091018C1003140800C2308316031392001D
:100360008312031391018C1003100800EC18C629A6
:10037000BC001F3C031CC6293C080D3A0319C629C2
:100380003C080A3A0319C629030108003C08741AFC
:10039000CE290C1EC929990064000800B700D62197
:1003A000B20A0800FD010E30A22308003208FF3C0B
:1003B000031C0800AD0AE0293208FF3C031C0800BA
:1003C000F7217319E62937088000080037088317DA
:1003D0008000831373110800AD03F7217319F2290C
:1003E00000080800831700088313731108007311B5
:1003F0003208003C0318052A32083F3C0318092A3A
:1004000032089F3C03180E2A142A32086F3E8400DB
:10041000080001303202A03E840008004030320261
:10042000103E840073150800A0303202903E840014
:1004300073150800FA30A9000000A90B1C2A080057
:10044000AA00C8302622AA0B212A0800A8001A22D6
:100450001A221A221A221A22A80B272A0800D621A9
:10046000B20A0830B000B70C7E21B00B332A080066
:100470000630B100EC21AC000310AC0C2C08203A83
:100480000319442A2C08B621B20AB10B3A2AEC21EE
:10049000B900B90C0F30B90503195A2A2D30C721FC
:1004A0000A303902031C572AB9003130C7213908F4
:1004B000303EC72129083206031D602A2A30C72191
:1004C0000800F3118B12831603138430810083120A
:1004D00003130B108B1528308400D9237310FF30C1
:1004E000B500B6009101C23091008C10B3270318FB
:1004F000C32A9621B40C34087E3A031D762AB4012F
:100500000830B0009621031C8E2AAF0AB40C2F08C5
:10051000053A0319902AB00B822AA42AAF01862A31
:1005200096210318952AAF018B2A962103186B2A6E
:100530003008033A031D6B2AAF01731C7F2A2E0873
:100540000F3C03186B2AB42A731C7314AE0A2E08CE
:10055000FF3A03196B2A2E08023C031C2F2238088D
:10056000B7003408B8007F2AFF30B606B506370852
:100570003606031D6B2A38083506031D6B2A023028
:10058000AE027717F7168B11080077136C1ADB2A67
:100590006C1D08006C1F0800B2013E3084008823E7
:1005A000031CD32ADB2AEC1F0800B201613084004F
:1005B0008823031C08006D1A1E2BFF30A9000D3084
:1005C000B200ED21B9003918E82A0730B207E12A54
:1005D0003208A8000D3032060319F72AB91BF52A94
:1005E0000730B202ED21B900EA2A3208A90007302B
:1005F000B20038223E30C721B201382228080D3A15
:10060000031D052B0D30B200122B2C30C7210E30EC
:10061000B2003822280832060319122B2C30C721C9
:10062000B20A092B3A30C7210230B207AD022D08B9
:1006300003192D2BB20AEC21B621172BB201D221BE
:100640002D0803192D2BEC21AC00B20A08308A00CA
:100650002C08002003308A00202B0E30A223080033
:10066000F712EC1E08006C1F08002D08BA000D30B0
:10067000B200ED21B9003918862B1430B200ED21FB
:10068000B900B91F4B2B391808000730B207443C9A
:10069000031C08003F2B0630B2023208A8003E308F
:1006A00084008823031C552B762BEC1F0800280898
:1006B000B200613084008823031C08002808B200BF
:1006C0000730BB003E3084000008B7000310B70DB0
:1006D0000408A900ED210139B704DC2129088400B0
:1006E000BB0B732B762BB20A840A642B2808063EB8
:1006F000B200ED218038B700DC216A203521B2013B
:10070000ED215021B20ABA0B802B4321922108001F
:100710000730BB000008AA000408AB000310AA0DB4
:10072000ED21B400341034082A06031DA02B2B0839
:100730008400BB0B9D2B03140800B20A840A8A2B89
:1007400003100800A800831203170B308F00D73066
:100750008D008312031328081C270927831203170F
:100760008D000E088F0083120313C123080083122B
:1007700003170A308F00A0308D0083120313C123AA
:10078000080009270310FE0DFF1B7E14FF13030151
:100790007E06031DD02B03017F0603190800D22B10
:1007A0007E08C72103017F06031DC72101301C27D6
:1007B000C12B80013D30040603190800840AD92B9F
:1007C000B2018130B700FF30AB00D621AB0BE92B73
:1007D0000800B20AE52BAC01F41164008C1A022C5B
:1007E0000C18F32BED2B67308F002E308E000C1081
:1007F000AC0A70302C06031DED2BF4150800A30184
:100800008C1E08001A08A3009818112C1819142C13
:100810000D3023060319102C6D1D102C2308C72141
:1008200008001812181608001A0808006130230280
:1008300003181B2C08007B302302031C202C08000B
:100840002030A3020800AA01B1240D3023060319A9
:10085000372C20302306031D372C4E2CB1240D30AD
:1008600023060319512C203023060319512C303054
:100870002302031C4E2C3A30230203184E2C303036
:10088000A3020930AB002A08AA0703184E2CAB0BB1
:10089000442C2308AA0703184E2C2E2C0301031402
:1008A00008002A08031008000A3026228C1E5A2C41
:1008B0001A08542C98185F2C1819622C080018126A
:1008C000181608001A08080023308400D9230800ED
:1008D000AC00693084002C0884070008A80025308B
:1008E00084002C0884072808800008007712003054
:1008F0008A00AB0125302B07840000080319892CDE
:1009000080030008031D892C2B084520F6042B08C2
:100910006824AB0A02302B06031D7A2C0800B201B2
:10092000EB23F419AE2C2308083A0319982C9E2CBB
:10093000030132060319902CB203902C2308B70050
:10094000D621B20A0A3023060319AE2C033023063F
:100950000319AE2C7C303206031D902CB701D62132
:100960000800EC21A300B20AF418162408000408B9
:10097000A9000630AB000008AC0020302C0603199B
:10098000C32C2C08C721AB030319C82C840ABB2C29
:100990002D30C721840A0F300005AC000A302C022C
:1009A000031CD62C3130C7210A30AC0230302C0762
:1009B000C721290884000800831203170D308F0017
:1009C00054308D0083120313B201B1240927AC0007
:1009D00023060319FE2C2C082302031CFC2C0130D7
:1009E0001C270927AC0000302C060319FC2C013011
:1009F00024272C081C27E62C0310080002301C2793
:100A00000927AC00FF302C06031DE52C01301C2704
:100A10000927031408008C1E0800F4148F24DC241A
:100A20000318142D0230B32EAC0005308A002C08B8
:100A30008207632D832D962D542DCA2DC82DCC2DC4
:100A4000CF2DD52DE02DEF2DD22DF12DDC2D612DCB
:100A5000ED2DBD2D392D812DA02EA32EA52E9A2E44
:100A60009D2E3B2DA72EAB2EAF2E502D3D2DC42DF0
:100A7000C62D6C14B52E6C10B52E23240318B32E7E
:100A8000AC000D302306031DB32EC9302C02031811
:100A9000B32E00302C060319B32E2C08EB00B52E14
:100AA0001D30A223A227B52E61308400C326030186
:100AB00004060319612D0D302306031D612DEC176B
:100AC000B52EEC13B32E23240318B32EAC000D3037
:100AD0002306031DB32E3D302C020318B32E003025
:100AE0002C0603197E2D0F302C02031C0310AC0DB5
:100AF0002C0DE90003016824EC15B52EEC11E90179
:100B0000B52EB723B52E0E30A2236C1F902D6D1C71
:100B1000932D5424F7147710F4100430A223080006
:100B20000B30A223B32E0A30A223B32E4530A900E6
:100B300029088400C326030104060319BD2D5A3079
:100B40002906031DA82D0D3023060319C02DBD2D28
:100B50000D3023060319C02D20302306031DBD2DA3
:100B6000B12456302306031DBD2DB12420302306A9
:100B7000031DBD2D0730A907982D6D10E801B32E78
:100B80006D142908E800B52EEC10B52EEC14B52E26
:100B9000EC16B52EEC12B52E6C166C11B52E6C152C
:100BA0006C12B52E6C126C11B52E3E308400C3262B
:100BB00003010406031DDE2D6C13B32E6C17B52E36
:100BC0006430AB00F410B12423088727AB0A230854
:100BD000003A031DE32DED14B52EED10B52E792747
:100BE000B52EEC1CF62D2530A223F82D2430A2239F
:100BF0006D19FD2D1230A223FF2D1130A2236C1888
:100C0000042E2230A223062E2330A2231E30A2233C
:100C100008308A006B08822003308A000E30A2233D
:100C20001630A223ED1E172E1730A2231F2E6D1F84
:100C30001C2E1B30A2231F2EED171C30A2230E30BA
:100C4000A223ED192B2E6D1A282E1330A2232E2E3F
:100C50001430A2232E2E1530A2232E2E0E30A223C6
:100C60000630A2236C1A382E6C193A2E19303B2EFE
:100C700007303B2E1830A223EC1A412E0930A22354
:100C8000432E0830A223EC1D532E1030A2236908F6
:100C9000AC0008308A000310AC0C2C0C822003300E
:100CA0008A000E30542E0F30A2230A30A2236D1872
:100CB0005C2E0E30A2236E2E45308400B724073000
:100CC000840704086802031C6C2E2030C7215630AC
:100CD000C7212030C7215E2E0E30A2230B30A22365
:100CE0006C1F752E3E308400B7240E30A2230C30CA
:100CF000A223EC1F7E2E61308400B7240E30A22385
:100D00000D30A223ED1C972E6430AB002B0883120C
:100D100003178D00831603170C14831203170C0896
:100D2000831203130319B52EC721AB0A862E0E308A
:100D3000A223B72E6D16ED11B52EED156D12B52E41
:100D4000ED116D12B52E6D15B52E6D11B52EED167A
:100D50006D13ED13B52E6D17ED12ED13B52EED17C6
:100D60006D13ED12B52E0530B62E0330A2230130DF
:100D7000A2235424F41008006C16EC166D15ED1621
:100D80004030EB0008000408A8000730B100203014
:100D90008000840AB10BC72E28088400B101B12459
:100DA0002D3023060319ED2E0D3023060319E72EEF
:100DB000203023060319E72E280831078400230872
:100DC0008000B10A3108073A031DCF2E072F0630E5
:100DD0002807840030308000042F23240318072FB5
:100DE000303EAC0040302C020318072F0630280795
:100DF00084002C0880000D3023060319042F2030B6
:100E000023060319042F072F2808840008008401F3
:100E10000800831603178C170C14000000008312BF
:100E200003170C08FF000E08FE000C0883160317BA
:100E30008C13831203130800831203178D07031802
:100E40008F0A831203130800831203178D02031CF9
:100E50008F038312031308008C1E08008F24F419DB
:100E60004B2F0330230603194B2F0D30C7210A30B7
:100E7000C721B201FA20F410B1240330230603196C
:100E80004B2F030123060319482F230850213C2F21
:100E90004321922108009221F71077145424013045
:100EA000A2230800B201BB01EC21A30016240630E6
:100EB0003206031D5D2F3B080800B20A2308BB075A
:100EC000542FAB013E3084002B08831203178D0092
:100ED000831603178C010C14831203170C0883125A
:100EE000031380002F302B0603190800840AAB0A75
:100EF000642FAB013E308400831203130008872760
:100F00002F302B0603190800840AAB0A7C2F0D1220
:100F1000831203178C00831203132B088312031709
:100F20008D00831603170C158B1355308D00AA30D6
:100F30008D008C140C11831203130D1E9D2F0D12A6
:100F40008B1708006A2035216400FF232030230618
:100F50000319AF2F033023060319B12FA42F5A20F2
:100F6000A42F9221080064000C18B72FC52F6730FA
:100F70008F002E308E000C10A70AEF302706031DBD
:100F8000C52F7716A7010314080003108C1A031449
:100F900008006424E023842008308A005F200730A2
:100FA0008A00F717851EDA2F0030A2230130A22312
:100FB0007714DF2F74156C126C111F30A22364009C
:100FC00077180B25F7182C27771A7624761898208F
:0E0FD000F71B6122F71A3023771BC522DF2F93
:10100000132001308A002030C72108308A00FD0AF1
:101010000F307D05031D080003308A000E30A22327
:1010200008308A000800AA00AB00F030AB050310BE
:10103000AB0CAB0CAB0CAB0C2B083020AB00013075
:101040008A002B08C72108308A000F302A0530207B
:10105000AB0001308A002B08C72108308A00080045
:101060008207303431343234333434343534363426
:1010700037343834393441344234433444344534D9
:1010800046340630831603139C001F309B00F73054
:101090008500343086008312031385018601080021
:1010A0000730831603139C0000309B00FF3085003F
:1010B000FD3086008312031385018601080050204D
:1010C0004120831603131815FF30990098168312D8
:1010D000031398171816313090000F3092000B1739
:1010E0008B17031A7B2803308A000E30A2231A3094
:1010F000A22308308A008312031717308500831259
:1011000003130800AC00AB01F412A901AC1F912835
:1011100001308A002D30C72108308A00AB0AAC09A3
:10112000AC0A08308A0004302B060319BA280330B1
:101130002B060319A3282B08C7202C02031CA62862
:10114000AC00A90A9128F41ABA28AF28030129068D
:101150000319AB28AF28F518AF28F41EB7280130C3
:101160008A00F41630302907C72108308A00A90107
:10117000AB0A9128751CC52801308A002E30C72182
:101180003530C72108308A007510F5100800820735
:1011900064340A3401340034502074138518472114
:1011A00041206430AA002A08831203178D00831699
:1011B00003170C14831203170C0883120313B700D0
:1011C0005C3A031D2C29AA0A831203178D0A831681
:1011D00003170C14831203170C0883120313B700B0
:1011E000733A031DF82874162408822074123529D6
:1011F000741F35293708683A031D0629741621081B
:1012000037216C1C422282207412352937086C3A2F
:10121000031D12297416220837216C1C42228220D9
:10122000741235293708743A031D1E2974162008D4
:1012300037216C1C42228220741235293708613A0A
:10124000031D2B2974162008372142227510F5142E
:10125000822074123529000001308A00D62109301D
:101260008A00370803190800B20AAA0AD3287510A1
:10127000AC002C187514AC1B402903102C0C080072
:10128000AC09AC0A0310AC0CAC092C0A0800A8018C
:10129000A901BF21741F9329CC3016224430162295
:1012A000861402308A000430202209308A00861019
:1012B000BF21CC301622BE3016220930B100BD014C
:1012C000EA21340809303106031D69293408A000D9
:1012D000762908303106031D76293408AC00031046
:1012E000AC0CA00CAC0CA00CAC0CA00CA821B10B4D
:1012F000602903013D0603197F297413080000309B
:101300002406031D87292008A200A1009329220892
:10131000942103188D292008A20021089421031C80
:1013200093292008A1000800A800A01B9E29A81B43
:10133000A629280820020318A629A429A81FA42941
:10134000280820020318A629031008000314080027
:101350000830AB003408A80028080139A900B421DE
:10136000A80CAB0BAC29080029083D060139BC00CC
:101370000310BD0C3C1CBE298C30BD060800831632
:1013800085148312A90174138312851083168510A6
:101390008312FE308F0095308E000A308A009C2226
:1013A00009308A00831685148312FF308F00CE30F7
:1013B0008E000A308A009C2209308A00851C74172E
:1013C000FE308F00DE308E000A308A009C22093009
:1013D0008A0000340830AA00831285108316851015
:1013E0008312FF308F00FD308E000A308A009C226D
:1013F00009308A00831685148312FF308F00FE3077
:101400008E000A308A009C220A308A0005080239C0
:10141000FF3EB40CFF308F00DD308E000A308A00B2
:101420009C220A308A00AA0BEC290034B400083050
:10143000AA0083128510831685108312FF308F0057
:10144000FD308E000A308A009C220A308A00B40CDB
:1014500003188514FF308F00D5308E000A308A00C3
:101460009C220A308A00831685148312FF308F0075
:10147000FF308E000A308A009C220A308A00AA0BB4
:10148000192A0034A800A900831203170A308F001C
:1014900069308D0083120313A81F522A2808A9005F
:1014A000A909A90A07308A0029081C270927A900C9
:1014B0000A308A007518A90A7510291875140310C6
:1014C000A90CA81B662A2030290708002908203CFF
:1014D00008000000030007000A000E0012001500BB
:1014E00019001C002000240027002B002E003200D1
:1014F000360039003D004000440048004B004F00DA
:10150000520056005A005D006100640068006C00E3
:101510006F00730076007A007E00810085008800ED
:101520008C009000930097009A009E00A200A500F6
:10153000A900AC00B000B4000C100C1C9D2A0800DF
:101540000D000A00EF21ED36EE3073322810E93B32
:10155000683A6510613CF0366536BA1400100D002B
:101560000A004521C320CE2728106531E330EE372D
:101570006510653B79396E10AD146E10B01E6910A0
:10158000A039E6372033EE302032BC183C37301B10
:101590006D10EE3480390D000A005421D822202A23
:1015A0006214653A743C4210E237AD14B01820184A
:1015B000E831F230A039E136003C0D000A00C121CB
:1015C00049265221D420A0224314EC30E234613960
:1015D000653A4D10E437A032A016652AF439EE348E
:1015E000A033EE27793680140D000A004922C92362
:1015F0006538F43028106932E9336F102F37E63739
:1016000029330D000A004922D0292D104410F3344B
:101610006C38F93061106C366310ED37E1366437A1
:1016200080390D000A00C3224F242810E3326F34A2
:101630006F102F37E63729330D000A00492354264F
:10164000D2222810EE37EF176633AD146610EC3453
:10165000653A2039F03A69397437E23065367410EA
:10166000F232E93661372036E831F23080390D0048
:101670000A00D023A029671473382410D023C7236D
:10168000AF20471247284C26A417D0234D29A92163
:101690000D000A00CF2669276F3A20396D14EE3706
:1016A00061106C36ED17AF32E63729330D000A00B2
:1016B000D926CC20C124A0296D14E13C6936F33031
:1016C0005210CC22D92080140D000A00D926C12145
:1016D0004C262810F936E1316C3677103831E73B6B
:1016E000AD3029190D000A0045284D29281045283C
:1016F0004D2980140D000A00452AD026F232F4301C
:10170000F23AA0327414ED3220382F33A9310D0093
:101710000A00522AE330A032741420396D3CF434AC
:10172000F217F631A014A0166F23203965327531F7
:10173000E733EE34A033EE3779360D000A00582A2D
:1017400045224126A02C7414643CEC32F9306E1012
:1017500030106E1E321E31186E107310F432A03924
:1017600065326136A03C6C33E73080390D000A00E9
:10177000D02A5228D427A027751470376F396F3AB2
:1017800077103831E73BAD30B41876107710383128
:10179000E73BAD30A9182D1033106410E734F33453
:1017A0006D10F8300D000A000D000A000000FD0B5E
:1017B0001B0C210C230C270C3D0C410C460C4B0C34
:1017C000550C5F0C640C690C6E0C720C750C7D0C66
:1017D000860C8D0C940C9A0CA00CA70CAA0CAE0CC9
:1017E000B20CB70CC60CCA0CCE0CE70CEC0C030DFB
:1017F000130D2C0D360D400D4A0D0D000A00C22BA5
:10180000571CC1234D10C427CD224526D32954107F
:1018100043272010202B2E1930190D000A00792A99
:1018200065384810CC2220286F332039EE246F33DE
:101830000D000A0000000D000A00ED313A320010E0
:1018400000003F0000000D000A00CB2700000D0043
:101850000A002A1520154310EE37653B7339A03274
:10186000EF2665322016F4312036A0216F3A45105C
:10187000693C003A0D000A0000000D000A00801FBC
:101880000000CF2669276F3A20390000CC200026BF
:101890000D000A0000004922C9236538F430F232F5
:1018A0004F1000270D000A0000004922C9236538A7
:1018B000F430F2324F1046230D000A000000CE2A09
:1018C0005228D427A0270000D926C1214C26001079
:1018D0000000D926CC20C124A02900005421D82200
:1018E000202A00000D000A0000004521C320CE2759
:1018F0004F1066330D000A0000004521C320CE279B
:101900004F102037D622D222A02C0000C3224F2411
:101910004F1000270D000A000000C3224F244F1073
:1019200046230D000A000000522AE330A032C627E9
:1019300000230000522AE330A0324329002B00008C
:10194000522AE330A0325810C926002A0000D023C2
:10195000A029000047125228C3260000C5260D000A
:101960000A000000C62700230D000A000000E12B3A
:10197000633A20346F22A033692AE5362039612387
:10198000EC34F23A80320D000A000000471247287A
:101990004C26000047124728C1230000E121693688
:1019A0007231F430A032EF2665322017D02974103E
:1019B000A0376F3AE7336536A01DF4312036A021F9
:1019C0006F3A4510693C003A0D000A000000582AA1
:1019D00045224126A02C00000D000A00D023A0299A
:1019E000EF2665325716E930693A67376610F237E5
:1019F0004210E132EF312037692AE5362E390017DF
:101A00000D000A0000000D000A00E529F230E8315F
:101A1000EE34A0336F332039D023A029F527703A54
:101A2000F43A201D00000D000A00492AC526D527DA
:101A3000212A2E17E12BF434EE34A0336F332039F2
:101A40006527743C4210E132EF312037692AE536D0
:101A500000390D000A000000452AD026F232F43089
:101A6000F23AA03200230D000A000000452AD026D9
:101A7000F232F430F23AA03280210D000A00000068
:101A80000D000A0069237436F2324F1000270D0052
:101A90000A0000000D000A0069237436F2324F106C
:101AA00046230D000A00000042342C3445341A3419
:101AB00041340034433400344F3400344E34003465
:101AC0002034003445340034563400344534003476
:101AD000523400345934003420340034FF3400349C
:101AE0005434003445340034583400345434003411
:101AF0000D340434FF340F3420340034FF340934FF
:101B000043342634413412344C34003449340034E4
:101B100042340034523400344134003454340034FC
:101B200045340034FF341C344F3400344E34003418
:101B300056340034453400345234003453340034C5
:101B4000453400340D340034FF340134443422343D
:101B500049340034473416344934003420340034D6
:101B60004F34003446340834463400340D340034E5
:101B7000FF3404344E3400340D340034FF34053463
:101B800053340034503400340D340034FF340C34FA
:101B900045341A3443340034483400344F3400346C
:101BA000203400344F340034463408344634003492
:101BB0000D340034FF3415344E3400340D34003409
:101BC000FF34143446341E34493400344C34003469
:101BD000543400344534003452340034203400345A
:101BE0004F34003446340834463400340D34003465
:101BF000FF341F344E3400340D340034FF341E34AF
:101C00004734243450340034533400342034003406
:101C100024340034473400345034003447340E3414
:101C20004734063441340034FF341B344C34003420
:101C30004C340034FF341A34523400344D34003400
:101C400043340034FF34193448340C344534003400
:101C50004C340034503400340D340034FF3412342A
:101C60004D3444344F341E344E3400342034003468
:101C7000413408344C3400344C340034FF340634DE
:101C80004D34063445340034FF3407344F340034C7
:101C900046340034463400340D340034FF340B3401
:101CA00059340034413412344C3400344934003453
:101CB00041340034533400340D340434FF340E34D2
:101CC00020340034FF3403344334003441340034CE
:101CD0004C3400344C3400340D340434FF340D34AF
:101CE00020340034FF34083450340C34453400348C
:101CF000523400344D3400340D340034FF340A348F
:101D000054344A34453414344D340034503400349F
:101D100020340034433406340D340034FF3411349D
:101D2000463400340D340034FF3418345234243433
:101D3000203400344F340A344634003446340034FE
:101D40000D340034FF34133452340A344334003435
:101D5000563400340D340034FF3416345834003413
:101D60004D34003449340034543400340D340034DC
:101D7000FF341734583400344434003445340034CC
:101D80004C340034413400345934003420340034AD
:101D9000FF341D34553400344E3400345034003494
:101DA000523400344F340034543400344F3400344F
:101DB0000D340434FF34103420340034FF34023442
:02400E000A3F67
:02401000FC3F73
:00000001FF
